{
  "contractName": "Auth",
  "abi": [
    {
      "anonymous": false,
      "inputs": [
        {
          "indexed": true,
          "internalType": "address",
          "name": "userAddress",
          "type": "address"
        }
      ],
      "name": "UserLoggedIn",
      "type": "event"
    },
    {
      "anonymous": false,
      "inputs": [
        {
          "indexed": true,
          "internalType": "address",
          "name": "userAddress",
          "type": "address"
        }
      ],
      "name": "UserRegistered",
      "type": "event"
    },
    {
      "inputs": [
        {
          "internalType": "address",
          "name": "",
          "type": "address"
        }
      ],
      "name": "users",
      "outputs": [
        {
          "internalType": "string",
          "name": "email",
          "type": "string"
        },
        {
          "internalType": "string",
          "name": "password",
          "type": "string"
        },
        {
          "internalType": "bool",
          "name": "registered",
          "type": "bool"
        }
      ],
      "stateMutability": "view",
      "type": "function"
    },
    {
      "inputs": [
        {
          "internalType": "string",
          "name": "_email",
          "type": "string"
        },
        {
          "internalType": "string",
          "name": "_password",
          "type": "string"
        }
      ],
      "name": "register",
      "outputs": [],
      "stateMutability": "nonpayable",
      "type": "function"
    },
    {
      "inputs": [
        {
          "internalType": "string",
          "name": "_email",
          "type": "string"
        },
        {
          "internalType": "string",
          "name": "_password",
          "type": "string"
        }
      ],
      "name": "login",
      "outputs": [
        {
          "internalType": "bool",
          "name": "",
          "type": "bool"
        }
      ],
      "stateMutability": "view",
      "type": "function"
    },
    {
      "inputs": [],
      "name": "isRegistered",
      "outputs": [
        {
          "internalType": "bool",
          "name": "",
          "type": "bool"
        }
      ],
      "stateMutability": "view",
      "type": "function"
    }
  ],
  "bytecode": "0x608060405234801561001057600080fd5b50610dbe806100206000396000f3fe608060405234801561001057600080fd5b506004361061004c5760003560e01c806322366844146100515780633ffbd47f1461007157806358467dbc146101c3578063a87430ba1461032b575b600080fd5b61005961045d565b60405180821515815260200191505060405180910390f35b6101c16004803603604081101561008757600080fd5b81019080803590602001906401000000008111156100a457600080fd5b8201836020820111156100b657600080fd5b803590602001918460018302840111640100000000831117156100d857600080fd5b91908080601f016020809104026020016040519081016040528093929190818152602001838380828437600081840152601f19601f8201169050808301925050505050505091929192908035906020019064010000000081111561013b57600080fd5b82018360208201111561014d57600080fd5b8035906020019184600183028401116401000000008311171561016f57600080fd5b91908080601f016020809104026020016040519081016040528093929190818152602001838380828437600081840152601f19601f8201169050808301925050505050505091929192905050506104b3565b005b610313600480360360408110156101d957600080fd5b81019080803590602001906401000000008111156101f657600080fd5b82018360208201111561020857600080fd5b8035906020019184600183028401116401000000008311171561022a57600080fd5b91908080601f016020809104026020016040519081016040528093929190818152602001838380828437600081840152601f19601f8201169050808301925050505050505091929192908035906020019064010000000081111561028d57600080fd5b82018360208201111561029f57600080fd5b803590602001918460018302840111640100000000831117156102c157600080fd5b91908080601f016020809104026020016040519081016040528093929190818152602001838380828437600081840152601f19601f820116905080830192505050505050509192919290505050610675565b60405180821515815260200191505060405180910390f35b61036d6004803603602081101561034157600080fd5b81019080803573ffffffffffffffffffffffffffffffffffffffff169060200190929190505050610b61565b6040518080602001806020018415158152602001838103835286818151815260200191508051906020019080838360005b838110156103b957808201518184015260208101905061039e565b50505050905090810190601f1680156103e65780820380516001836020036101000a031916815260200191505b50838103825285818151815260200191508051906020019080838360005b8381101561041f578082015181840152602081019050610404565b50505050905090810190601f16801561044c5780820380516001836020036101000a031916815260200191505b509550505050505060405180910390f35b60008060003373ffffffffffffffffffffffffffffffffffffffff1673ffffffffffffffffffffffffffffffffffffffff16815260200190815260200160002060020160009054906101000a900460ff16905090565b6000803373ffffffffffffffffffffffffffffffffffffffff1673ffffffffffffffffffffffffffffffffffffffff16815260200190815260200160002060020160009054906101000a900460ff1615610575576040517f08c379a00000000000000000000000000000000000000000000000000000000081526004018080602001828103825260188152602001807f5573657220616c726561647920726567697374657265642e000000000000000081525060200191505060405180910390fd5b6040518060600160405280838152602001828152602001600115158152506000803373ffffffffffffffffffffffffffffffffffffffff1673ffffffffffffffffffffffffffffffffffffffff16815260200190815260200160002060008201518160000190805190602001906105ed929190610cc8565b50602082015181600101908051906020019061060a929190610cc8565b5060408201518160020160006101000a81548160ff0219169083151502179055509050503373ffffffffffffffffffffffffffffffffffffffff167f54db7a5cb4735e1aac1f53db512d3390390bb6637bd30ad4bf9fc98667d9b9b960405160405180910390a25050565b600061067f610d48565b6000803373ffffffffffffffffffffffffffffffffffffffff1673ffffffffffffffffffffffffffffffffffffffff168152602001908152602001600020604051806060016040529081600082018054600181600116156101000203166002900480601f0160208091040260200160405190810160405280929190818152602001828054600181600116156101000203166002900480156107615780601f1061073657610100808354040283529160200191610761565b820191906000526020600020905b81548152906001019060200180831161074457829003601f168201915b50505050508152602001600182018054600181600116156101000203166002900480601f0160208091040260200160405190810160405280929190818152602001828054600181600116156101000203166002900480156108035780601f106107d857610100808354040283529160200191610803565b820191906000526020600020905b8154815290600101906020018083116107e657829003601f168201915b505050505081526020016002820160009054906101000a900460ff161515151581525050905080604001516108a0576040517f08c379a00000000000000000000000000000000000000000000000000000000081526004018080602001828103825260178152602001807f55736572206973206e6f7420726567697374657265642e00000000000000000081525060200191505060405180910390fd5b836040516020018082805190602001908083835b602083106108d757805182526020820191506020810190506020830392506108b4565b6001836020036101000a0380198251168184511680821785525050505050509050019150506040516020818303038152906040528051906020012081600001516040516020018082805190602001908083835b6020831061094d578051825260208201915060208101905060208303925061092a565b6001836020036101000a03801982511681845116808217855250505050505090500191505060405160208183030381529060405280519060200120146109fb576040517f08c379a00000000000000000000000000000000000000000000000000000000081526004018080602001828103825260108152602001807f496e636f727265637420656d61696c2e0000000000000000000000000000000081525060200191505060405180910390fd5b826040516020018082805190602001908083835b60208310610a325780518252602082019150602081019050602083039250610a0f565b6001836020036101000a0380198251168184511680821785525050505050509050019150506040516020818303038152906040528051906020012081602001516040516020018082805190602001908083835b60208310610aa85780518252602082019150602081019050602083039250610a85565b6001836020036101000a0380198251168184511680821785525050505050509050019150506040516020818303038152906040528051906020012014610b56576040517f08c379a00000000000000000000000000000000000000000000000000000000081526004018080602001828103825260138152602001807f496e636f72726563742070617373776f72642e0000000000000000000000000081525060200191505060405180910390fd5b600191505092915050565b6000602052806000526040600020600091509050806000018054600181600116156101000203166002900480601f016020809104026020016040519081016040528092919081815260200182805460018160011615610100020316600290048015610c0d5780601f10610be257610100808354040283529160200191610c0d565b820191906000526020600020905b815481529060010190602001808311610bf057829003601f168201915b505050505090806001018054600181600116156101000203166002900480601f016020809104026020016040519081016040528092919081815260200182805460018160011615610100020316600290048015610cab5780601f10610c8057610100808354040283529160200191610cab565b820191906000526020600020905b815481529060010190602001808311610c8e57829003601f168201915b5050505050908060020160009054906101000a900460ff16905083565b828054600181600116156101000203166002900490600052602060002090601f016020900481019282601f10610d0957805160ff1916838001178555610d37565b82800160010185558215610d37579182015b82811115610d36578251825591602001919060010190610d1b565b5b509050610d449190610d6b565b5090565b604051806060016040528060608152602001606081526020016000151581525090565b5b80821115610d84576000816000905550600101610d6c565b509056fea264697066735822122045423d5ab289ef60c3dc5f9b2dd4e023accaa51e046f3f7a68e8ccb38fbb438264736f6c63430007000033",
  "immutableReferences": {},
  "source": "// contracts/Auth.sol\r\npragma solidity ^0.7.0;\r\n\r\ncontract Auth {\r\n    struct User {\r\n        string email;\r\n        string password;\r\n        bool registered;\r\n    }\r\n\r\n    mapping(address => User) public users;\r\n\r\n    event UserRegistered(address indexed userAddress);\r\n    event UserLoggedIn(address indexed userAddress);\r\n\r\n    function register(string memory _email, string memory _password) public {\r\n        require(!users[msg.sender].registered, \"User already registered.\");\r\n        users[msg.sender] = User(_email, _password, true);\r\n        emit UserRegistered(msg.sender);\r\n    }\r\n\r\n    function login(string memory _email, string memory _password) public view returns (bool) {\r\n        User memory user = users[msg.sender];\r\n        require(user.registered, \"User is not registered.\");\r\n        require(keccak256(abi.encodePacked(user.email)) == keccak256(abi.encodePacked(_email)), \"Incorrect email.\");\r\n        require(keccak256(abi.encodePacked(user.password)) == keccak256(abi.encodePacked(_password)), \"Incorrect password.\");\r\n        return true;\r\n    }\r\n\r\n    function isRegistered() public view returns (bool) {\r\n        return users[msg.sender].registered;\r\n    }\r\n}\r\n",
  "sourcePath": "C:\\Users\\rohit\\OneDrive\\Desktop\\NewAuth_Dapp\\contracts\\Auth.sol",
  "compiler": {
    "name": "solc",
    "version": "0.7.0+commit.9e61f92b.Emscripten.clang"
  },
  "schemaVersion": "3.4.16",
  "updatedAt": "2025-03-14T15:35:53.145Z",
  "devdoc": {
    "kind": "dev",
    "methods": {},
    "version": 1
  },
  "userdoc": {
    "kind": "user",
    "methods": {},
    "version": 1
  }
}