{
  "contractName": "UserAuth",
  "abi": [
    {
      "inputs": [
        {
          "internalType": "address",
          "name": "",
          "type": "address"
        }
      ],
      "name": "users",
      "outputs": [
        {
          "internalType": "string",
          "name": "name",
          "type": "string"
        },
        {
          "internalType": "string",
          "name": "email",
          "type": "string"
        },
        {
          "internalType": "bytes32",
          "name": "password",
          "type": "bytes32"
        },
        {
          "internalType": "address",
          "name": "wallet",
          "type": "address"
        },
        {
          "internalType": "enum UserAuth.Role",
          "name": "role",
          "type": "uint8"
        }
      ],
      "stateMutability": "view",
      "type": "function",
      "constant": true
    },
    {
      "inputs": [
        {
          "internalType": "string",
          "name": "_name",
          "type": "string"
        },
        {
          "internalType": "string",
          "name": "_email",
          "type": "string"
        },
        {
          "internalType": "string",
          "name": "_password",
          "type": "string"
        },
        {
          "internalType": "enum UserAuth.Role",
          "name": "_role",
          "type": "uint8"
        }
      ],
      "name": "register",
      "outputs": [],
      "stateMutability": "nonpayable",
      "type": "function"
    },
    {
      "inputs": [
        {
          "internalType": "string",
          "name": "_email",
          "type": "string"
        },
        {
          "internalType": "string",
          "name": "_password",
          "type": "string"
        }
      ],
      "name": "login",
      "outputs": [
        {
          "internalType": "bool",
          "name": "",
          "type": "bool"
        }
      ],
      "stateMutability": "view",
      "type": "function",
      "constant": true
    },
    {
      "inputs": [
        {
          "internalType": "address",
          "name": "_user",
          "type": "address"
        }
      ],
      "name": "getUserRole",
      "outputs": [
        {
          "internalType": "enum UserAuth.Role",
          "name": "",
          "type": "uint8"
        }
      ],
      "stateMutability": "view",
      "type": "function",
      "constant": true
    }
  ],
  "bytecode": "0x608060405234801561001057600080fd5b5061104e806100206000396000f3fe608060405234801561001057600080fd5b506004361061004c5760003560e01c8063278208511461005157806358467dbc14610081578063796ed339146100b1578063a87430ba146100cd575b600080fd5b61006b60048036038101906100669190610955565b610101565b6040516100789190610c83565b60405180910390f35b61009b6004803603810190610096919061097e565b610159565b6040516100a89190610c68565b60405180910390f35b6100cb60048036038101906100c691906109ea565b61030b565b005b6100e760048036038101906100e29190610955565b6106ad565b6040516100f8959493929190610c9e565b60405180910390f35b60008060008373ffffffffffffffffffffffffffffffffffffffff1673ffffffffffffffffffffffffffffffffffffffff16815260200190815260200160002060030160149054906101000a900460ff169050919050565b6000808260405160200161016d9190610c3a565b60405160208183030381529060405280519060200120905060005b6002805490508110156102fe576000600282815481106101d1577f4e487b7100000000000000000000000000000000000000000000000000000000600052603260045260246000fd5b9060005260206000200160009054906101000a900473ffffffffffffffffffffffffffffffffffffffff1690508560405160200161020f9190610c3a565b604051602081830303815290604052805190602001206000808373ffffffffffffffffffffffffffffffffffffffff1673ffffffffffffffffffffffffffffffffffffffff1681526020019081526020016000206001016040516020016102769190610c51565b604051602081830303815290604052805190602001201480156102d95750826000808373ffffffffffffffffffffffffffffffffffffffff1673ffffffffffffffffffffffffffffffffffffffff16815260200190815260200160002060020154145b156102ea5760019350505050610305565b5080806102f690610ec7565b915050610188565b5060009150505b92915050565b33600073ffffffffffffffffffffffffffffffffffffffff166000808373ffffffffffffffffffffffffffffffffffffffff1673ffffffffffffffffffffffffffffffffffffffff16815260200190815260200160002060030160009054906101000a900473ffffffffffffffffffffffffffffffffffffffff1673ffffffffffffffffffffffffffffffffffffffff16146103dc576040517f08c379a00000000000000000000000000000000000000000000000000000000081526004016103d390610d1f565b60405180910390fd5b836001816040516103ed9190610c3a565b908152602001604051809103902060009054906101000a900460ff1615610449576040517f08c379a000000000000000000000000000000000000000000000000000000000815260040161044090610cff565b60405180910390fd5b60008460405160200161045c9190610c3a565b6040516020818303038152906040528051906020012090506040518060a001604052808881526020018781526020018281526020013373ffffffffffffffffffffffffffffffffffffffff1681526020018560028111156104e6577f4e487b7100000000000000000000000000000000000000000000000000000000600052602160045260246000fd5b8152506000803373ffffffffffffffffffffffffffffffffffffffff1673ffffffffffffffffffffffffffffffffffffffff1681526020019081526020016000206000820151816000019080519060200190610543929190610820565b506020820151816001019080519060200190610560929190610820565b506040820151816002015560608201518160030160006101000a81548173ffffffffffffffffffffffffffffffffffffffff021916908373ffffffffffffffffffffffffffffffffffffffff16021790555060808201518160030160146101000a81548160ff02191690836002811115610603577f4e487b7100000000000000000000000000000000000000000000000000000000600052602160045260246000fd5b02179055509050506001808760405161061c9190610c3a565b908152602001604051809103902060006101000a81548160ff0219169083151502179055506002339080600181540180825580915050600190039060005260206000200160009091909190916101000a81548173ffffffffffffffffffffffffffffffffffffffff021916908373ffffffffffffffffffffffffffffffffffffffff16021790555050505050505050565b60006020528060005260406000206000915090508060000180546106d090610e95565b80601f01602080910402602001604051908101604052809291908181526020018280546106fc90610e95565b80156107495780601f1061071e57610100808354040283529160200191610749565b820191906000526020600020905b81548152906001019060200180831161072c57829003601f168201915b50505050509080600101805461075e90610e95565b80601f016020809104026020016040519081016040528092919081815260200182805461078a90610e95565b80156107d75780601f106107ac576101008083540402835291602001916107d7565b820191906000526020600020905b8154815290600101906020018083116107ba57829003601f168201915b5050505050908060020154908060030160009054906101000a900473ffffffffffffffffffffffffffffffffffffffff16908060030160149054906101000a900460ff16905085565b82805461082c90610e95565b90600052602060002090601f01602090048101928261084e5760008555610895565b82601f1061086757805160ff1916838001178555610895565b82800160010185558215610895579182015b82811115610894578251825591602001919060010190610879565b5b5090506108a291906108a6565b5090565b5b808211156108bf5760008160009055506001016108a7565b5090565b60006108d66108d184610d70565b610d3f565b9050828152602081018484840111156108ee57600080fd5b6108f9848285610e53565b509392505050565b60008135905061091081610ff1565b92915050565b60008135905061092581611008565b92915050565b600082601f83011261093c57600080fd5b813561094c8482602086016108c3565b91505092915050565b60006020828403121561096757600080fd5b600061097584828501610901565b91505092915050565b6000806040838503121561099157600080fd5b600083013567ffffffffffffffff8111156109ab57600080fd5b6109b78582860161092b565b925050602083013567ffffffffffffffff8111156109d457600080fd5b6109e08582860161092b565b9150509250929050565b60008060008060808587031215610a0057600080fd5b600085013567ffffffffffffffff811115610a1a57600080fd5b610a268782880161092b565b945050602085013567ffffffffffffffff811115610a4357600080fd5b610a4f8782880161092b565b935050604085013567ffffffffffffffff811115610a6c57600080fd5b610a788782880161092b565b9250506060610a8987828801610916565b91505092959194509250565b610a9e81610ddc565b82525050565b610aad81610dee565b82525050565b610abc81610dfa565b82525050565b610acb81610e41565b82525050565b6000610adc82610db5565b610ae68185610dc0565b9350610af6818560208601610e62565b610aff81610fcc565b840191505092915050565b6000610b1582610db5565b610b1f8185610dd1565b9350610b2f818560208601610e62565b80840191505092915050565b60008154610b4881610e95565b610b528186610dd1565b94506001821660008114610b6d5760018114610b7e57610bb1565b60ff19831686528186019350610bb1565b610b8785610da0565b60005b83811015610ba957815481890152600182019150602081019050610b8a565b838801955050505b50505092915050565b6000610bc7601983610dc0565b91507f456d61696c20616c726561647920726567697374657265642e000000000000006000830152602082019050919050565b6000610c07601483610dc0565b91507f5573657220616c7265616479206578697374732e0000000000000000000000006000830152602082019050919050565b6000610c468284610b0a565b915081905092915050565b6000610c5d8284610b3b565b915081905092915050565b6000602082019050610c7d6000830184610aa4565b92915050565b6000602082019050610c986000830184610ac2565b92915050565b600060a0820190508181036000830152610cb88188610ad1565b90508181036020830152610ccc8187610ad1565b9050610cdb6040830186610ab3565b610ce86060830185610a95565b610cf56080830184610ac2565b9695505050505050565b60006020820190508181036000830152610d1881610bba565b9050919050565b60006020820190508181036000830152610d3881610bfa565b9050919050565b6000604051905081810181811067ffffffffffffffff82111715610d6657610d65610f9d565b5b8060405250919050565b600067ffffffffffffffff821115610d8b57610d8a610f9d565b5b601f19601f8301169050602081019050919050565b60008190508160005260206000209050919050565b600081519050919050565b600082825260208201905092915050565b600081905092915050565b6000610de782610e17565b9050919050565b60008115159050919050565b6000819050919050565b6000819050610e1282610fdd565b919050565b600073ffffffffffffffffffffffffffffffffffffffff82169050919050565b6000819050919050565b6000610e4c82610e04565b9050919050565b82818337600083830152505050565b60005b83811015610e80578082015181840152602081019050610e65565b83811115610e8f576000848401525b50505050565b60006002820490506001821680610ead57607f821691505b60208210811415610ec157610ec0610f6e565b5b50919050565b6000610ed282610e37565b91507fffffffffffffffffffffffffffffffffffffffffffffffffffffffffffffffff821415610f0557610f04610f10565b5b600182019050919050565b7f4e487b7100000000000000000000000000000000000000000000000000000000600052601160045260246000fd5b7f4e487b7100000000000000000000000000000000000000000000000000000000600052602160045260246000fd5b7f4e487b7100000000000000000000000000000000000000000000000000000000600052602260045260246000fd5b7f4e487b7100000000000000000000000000000000000000000000000000000000600052604160045260246000fd5b6000601f19601f8301169050919050565b60038110610fee57610fed610f3f565b5b50565b610ffa81610ddc565b811461100557600080fd5b50565b6003811061101557600080fd5b5056fea2646970667358221220010450ae6fe8aeed99878e213c85071e7d09b8cc1ae2f8fc5eefbea6bba5d95864736f6c63430008000033",
  "immutableReferences": {},
  "source": "// SPDX-License-Identifier: MIT\r\npragma solidity ^0.8.0;\r\n\r\ncontract UserAuth {\r\n\r\n    enum Role { Patient, Doctor, Admin }\r\n\r\n    struct User {\r\n        string name;\r\n        string email;\r\n        bytes32 password; // Storing the password hash\r\n        address wallet;\r\n        Role role;\r\n    }\r\n\r\n    mapping(address => User) public users;\r\n    mapping(string => bool) private emailRegistered;\r\n    address[] private userAddresses; // Array to keep track of registered addresses\r\n\r\n    // Modifier to check if the user already exists\r\n    modifier userNotExists(address _wallet) {\r\n        require(users[_wallet].wallet == address(0), \"User already exists.\");\r\n        _;\r\n    }\r\n\r\n    // Modifier to check if the email is already registered\r\n    modifier emailNotRegistered(string memory _email) {\r\n        require(!emailRegistered[_email], \"Email already registered.\");\r\n        _;\r\n    }\r\n\r\n    // Register function for new users\r\n    function register(\r\n        string memory _name,\r\n        string memory _email,\r\n        string memory _password,\r\n        Role _role\r\n    ) public userNotExists(msg.sender) emailNotRegistered(_email) {\r\n        // Hash the password\r\n        bytes32 hashedPassword = keccak256(abi.encodePacked(_password));\r\n\r\n        // Create new user\r\n        users[msg.sender] = User(_name, _email, hashedPassword, msg.sender, _role);\r\n        emailRegistered[_email] = true;\r\n        userAddresses.push(msg.sender); // Add the new user's address to the array\r\n    }\r\n\r\n    // Authenticate user by checking email and password\r\n    function login(string memory _email, string memory _password) public view returns (bool) {\r\n        bytes32 hashedPassword = keccak256(abi.encodePacked(_password));\r\n\r\n        for (uint256 i = 0; i < userAddresses.length; i++) {\r\n            address userAddr = userAddresses[i];\r\n            if (\r\n                keccak256(abi.encodePacked(users[userAddr].email)) == keccak256(abi.encodePacked(_email)) &&\r\n                users[userAddr].password == hashedPassword\r\n            ) {\r\n                return true;\r\n            }\r\n        }\r\n\r\n        return false;\r\n    }\r\n\r\n    // Get user role\r\n    function getUserRole(address _user) public view returns (Role) {\r\n        return users[_user].role;\r\n    }\r\n}\r\n",
  "sourcePath": "C:\\Users\\rohit\\OneDrive\\Desktop\\NewAuth_Dapp\\contracts\\UserAuth.sol",
  "compiler": {
    "name": "solc",
    "version": "0.8.0+commit.c7dfd78e.Emscripten.clang"
  },
  "schemaVersion": "3.4.16",
  "updatedAt": "2025-03-15T14:57:21.503Z",
  "networkType": "ethereum",
  "devdoc": {
    "kind": "dev",
    "methods": {},
    "version": 1
  },
  "userdoc": {
    "kind": "user",
    "methods": {},
    "version": 1
  }
}